:020000040800F2
:1000000000500020297C00087D1400088914000895
:100010009114000899140008A114000800000000C1
:10002000000000000000000000000000A91400080B
:10003000B514000800000000C1140008CD14000829
:10004000717C0008717C0008717C0008717C0008DC
:10005000717C0008717C0008717C0008717C0008CC
:10006000717C0008717C0008717C0008D9140008BC
:10007000717C0008717C0008717C0008717C0008AC
:10008000717C0008717C0008717C0008717C00089C
:1000900019160008717C0008717C0008717C00084A
:1000A000717C000891150008717C0008717C0008C3
:1000B000717C0008717C0008717C0008717C00086C
:1000C000717C0008717C0008717C0008717C00085C
:1000D000717C000825160008717C0008717C0008FE
:1000E000717C0008717C00083116000800000000D7
:1000F0000000000000000000000000000000000000
:0C01000000000000000000005FF808F1A3
:10010C0010B5054C237833B9044B13B10448AFF345
:10011C0000800123237010BD40050020000000006A
:10012C00B07D0008084B10B51BB108490848AFF367
:10013C0000800848036803B910BD074B002BFBD0A7
:10014C00BDE81040184700BF000000004405002027
:10015C00B07D0008400500200000000080B582B092
:10016C0000AF01F07BF801F0A9F801F0CDF806F032
:10017C001BFA00F0EBF800F06FF900F0DDF900F07D
:10018C0013FA00F04DFB654B1A68654B1B6819465A
:10019C00104600F049FA00237B60624B1B78DBB2FF
:1001AC00012B14D15F4B00221A7000F02FF90021A3
:1001BC005D4804F007F800215C4804F003F8574B45
:1001CC001A68574B1B681946104600F02DFA584B0D
:1001DC001B78DBB2013B032BDFD801A252F823F0D2
:1001EC00FD0100081F0200084F0200088D020008E4
:1001FC004F4B00221A704F4B1B78DBB2012B02D1F4
:10020C004D4B05221A7041F6DC414C4800F07AF94E
:10021C0082E0474B00221A7000237B600BE0474AB8
:10022C007B6832F8133099B2454A7B6822F8131078
:10023C007B6801337B607B6840F66D629342EEDD38
:10024C006AE03B4B00221A7000237B6012E03C4AB0
:10025C007B6832F813309AB238497B6831F8133026
:10026C009BB2134499B2364A7B6822F813107B6810
:10027C0001337B607B6840F66D629342E7DD4BE0B7
:10028C002B4B00221A7000237B6012E02C4A7B68F7
:10029C0032F813309AB229497B6831F813309BB28B
:1002AC00134499B2264A7B6822F813107B680133F9
:1002BC007B607B6840F66D629342E7DD00237B60D8
:1002CC0012E01F4A7B6832F813309BB21A461D4B62
:1002DC001B78DBB292FBF3F399B2184A7B6822F8D5
:1002EC0013107B6801337B607B6840F66D62934230
:1002FC00E7DD104B1B78DBB2012B07D1114B1B78C0
:10030C00DAB2114B1A700C4B05221A7041F6DC4113
:10031C000A4800F0F7F800BF3FE700BF00000020DC
:10032C000400002060050020002C01400004004067
:10033C0042220020432200205E050020A82200203B
:10034C0064050020402200204122002080B582B0AC
:10035C0000AF1423FB710123BB7101211D2003F09D
:10036C0039F941F68523BB803B1D1946234802F021
:10037C00EDFB40F20943BB803B1D1946204802F0BF
:10038C00E5FB4FF40053BB803B1D19461D4802F0A2
:10039C00DDFB1C4A1B4BDB6883F40053D36001214B
:1003AC00194802F089FD01214FF4006002F084FD30
:1003BC0001214FF4807002F07FFD1823FB710323A1
:1003CC00BB714FF40443BB803B1D19460B4802F034
:1003DC00BDFB40F21123BB803B1D1946084802F0BF
:1003EC00B5FB0223BB800023FB713B1D1946034860
:1003FC0002F0ACFB00BF0837BD4680BD00080140D1
:10040C00000C0140001001400004300080B500AF2A
:10041C0000210D4803F0D6FE00210C4803F0D2FE5B
:10042C000B4B00221A700B4B00221A7043F69821CA
:10043C00142000F0F9F800BF054B1B78DBB2002B41
:10044C00FAD000BF80BD00BF002C0140000400406A
:10045C005F0500205E05002080B582B000AF4FF430
:10046C00A06001F00DFA19233B7100237B7100236E
:10047C00BB710123FB713B1D184601F013FA0B23D2
:10048C003B7101237B710023BB710123FB713B1D6D
:10049C00184601F007FA00BF0837BD4680BD00BF03
:1004AC0080B582B000AF154B1B88002B21D0134BAD
:1004BC001B88402B28BF4023FB80114B1B68FA88FC
:1004CC00C021184606F08AFAFB881946012006F06E
:1004DC0097FF012006F096FC094B1A68FB88134421
:1004EC00074A1360054B1A88FB88D31A9AB2034B40
:1004FC001A8000BF0837BD4680BD00BF5C050020D8
:10050C006422002080B582B000AF78600B467B80FF
:10051C007B88002B08D0064A7B681360054A7B88D1
:10052C001380FFF7BDFF00E000BF0837BD4680BD5C
:10053C00642200205C05002080B588B000AF01214A
:10054C00012003F065F80023BB8200237B8300238A
:10055C00FB8247233B8307F1140319464FF080407D
:10056C0003F068FA6023BB800123FB8024237B818A
:10057C000023BB813B1D19464FF0804003F0D6FA97
:10058C0008214FF0804004F02BF901214FF08040FE
:10059C0004F0A6F801214FF0804003F013FE00BFD9
:1005AC002037BD4680BD00BF80B588B000AF0121AB
:1005BC00042003F02DF84FF400733B801823FB70DC
:1005CC000323BB703B461946154802F0BFFA0023C3
:1005DC00BB8200237B830023FB8240F21F133B83EF
:1005EC0007F1140319460F4803F024FA6023BB806B
:1005FC000123FB808F237B810023BB813B1D19468C
:10060C00084803F02DFC0821064804F03FF90121AD
:10061C00044804F065F800BF2037BD4680BD00BF1C
:10062C00000C01400008004080B58AB000AF786033
:10063C003960794803F0E8F8784803F0E5F80121CF
:10064C004FF4006002F0C6FF0121022002F0E0FF2F
:10065C007B68B3F5803F6AD34723BB8300237B843D
:10066C000023FB83002387F824307B689BB2013B7B
:10067C009BB23B8407F11C031946684803F0DAF976
:10068C007B681B0C9BB2013B9BB23B8407F11C03A8
:10069C001946614803F0CEF96023BB810123FB812D
:1006AC0001237B820023BB8207F10C0319465B48B4
:1006BC0003F050FB6021594804F0E2FB80215748BD
:1006CC0004F016FC6023BB810123FB8104233B82D5
:1006DC0006237B820223BB820823FB824FF48073A8
:1006EC003B8300237B8307F10C0319464A4803F034
:1006FC0031FB2021484803F017FF0521464804F040
:10070C00DBFB0121444804F05BFD0122012142483E
:10071C0003F09EFD0121414803F054FD01213E48A8
:10072C0003F050FD01213C4803F06CFD70E04723C1
:10073C00BB8300237B840023FB83002387F82430B6
:10074C003B689BB2013B9BB23B8407F11C031946EF
:10075C00314803F06FF97B689BB2013B9BB23B8441
:10076C0007F11C0319462D4803F064F96023BB8183
:10077C000123FB8100233B8205237B820023BB8268
:10078C000823FB824FF480733B8300237B8307F1A8
:10079C000C031946204803F0DDFA08211E4804F02A
:1007AC0059F801211C4803F09BFF02237B82022392
:1007BC00BB8207F10C031946184803F0B7F908215E
:1007CC00164804F00DF80121144803F089FF0121AB
:1007DC00114804F0F5FC012201210F4803F038FD0B
:1007EC0001210D4803F0EEFC01210B4803F00AFD3A
:1007FC0001210A4803F0E6FC084A7B689BB20B3BDC
:10080C009BB29384044A3B689BB20B3B9BB2938490
:10081C0000BF2837BD4680BD002C014000040040BD
:10082C0080B590B000AF4FF4004002F097FD01216D
:10083C00012002F0B1FE01214FF4007002F0CAFE5B
:10084C00374801F0FBFD4FF4005001F0D9FF354B58
:10085C003B60354B7B600023BB6040F66E63FB60F6
:10086C0000233B6180237B614FF48073BB614FF4A9
:10087C008063FB6120233B624FF400537B620023B7
:10088C00BB623B461946264801F094FE01212448E0
:10089C0001F0F8FE01220221214801F00FFF002394
:1008AC00FB62002387F83030002387F831304FF497
:1008BC0020237B630023BB63012387F83C3007F1C3
:1008CC002C031946194801F0DBF801230122012100
:1008DC00164801F05FFA0121144801F025FB0121B3
:1008EC00124801F057F90121104801F037F90F486F
:1008FC0001F08EF900BF0D4801F09AF90346002B68
:10090C00F9D10A4801F0ACF900BF084801F0B8F978
:10091C000346002BF9D100BF4037BD4680BD00BF58
:10092C00080002404C240140A82200200024014071
:10093C0080B500AFFFF7B4FD00BF80BD80B582B0BD
:10094C0000AF2A49032007F043F90346FB8003203C
:10095C0006F082FA254B1B78452B43D1234B5B7851
:10096C00522B3FD1224B01221A70224B00221A70BB
:10097C001E4B9B791A061D4BDB791B041A431B4B30
:10098C001B7A1B021343194A527A13431A461A4B09
:10099C001A60164B9B781A06144BDB781B041A430F
:1009AC00124B1B791B021343104A527913431A46FC
:1009BC00124B1A60124B01221A700C4B9A7A114B83
:1009CC001A700A4BDB7A0F2B07D8084BDB7A002BFB
:1009DC0003D0064BDA7A0A4B1A70094B1B78DAB241
:1009EC00094B1A7000BF0837BD4680BD843F0020FC
:1009FC00600500204222002004000020000000209E
:100A0C0040220020432200204122002080B400AF6D
:100A1C00024B1B6800BFBD4680BC704754220020AF
:100A2C0080B58AB000AF00237B627D4B1B689AB205
:100A3C007C4B1A807B4B1B889BB203F400737A4A65
:100A4C0012881340002B0CD0754B4FF6FF521A60D6
:100A5C00764B1B78DBB20133DAB2744B1A70FFF7AA
:100A6C00D5FF704B1B889BB203F400436E4A12886F
:100A7C001340002B01D005F0B9FD6A4B1B889BB2CB
:100A8C0003F48063684A12881340002B06D0644B31
:100A9C004FF6FF321A60664B5B689847614B1B88B8
:100AAC009BB203F40053604A12881340002B03D00E
:100ABC005B4B4DF6FF721A605A4B1B889BB203F4CA
:100ACC008053594A12881340002B06D0544B4EF6D3
:100ADC00FF721A60002000F033FB524B1B889BB254
:100AEC0003F40063504A12881340002B0ED0514B74
:100AFC001B78DBB2002B02D000F09AFA02E0022045
:100B0C0000F01EFB464B4FF2FF721A60454B1B88E0
:100B1C009BB203F48073444A12881340002B7BD0A1
:100B2C003F4B4FF6FF621A60434B1B681BB2002B06
:100B3C006CDA424B1B680133404A13603F4B1B6815
:100B4C00032B66D93E4B1B689BB203F00803002BAA
:100B5C005FD13B4B1B689BB21A463A4B1A60002381
:100B6C007B6212E07B6A9B0003F1804303F5B84380
:100B7C001B689BB21A467B6A9B0007F128010B4449
:100B8C0043F8242C7B6A01337B627B6A072BE9D9FF
:100B9C002C4B1B6843F001032A4A1360284B294A4B
:100BAC00126892B21A60274B1B6823F00103254A86
:100BBC001360234B234A126892B21A6000BF184B81
:100BCC001B689BB203F48063002BF8D0144B4FF6D8
:100BDC00FF321A6000237B6211E07B6A9B0003F1F9
:100BEC00804303F5B8437A6A920007F128010A445E
:100BFC0052F8242C92B21A607B6A01337B627B6AB6
:100C0C00072BEAD90D4B00221A6002E00B4B002295
:100C1C001A60072000F094FA00BF2837BD4680BD4B
:100C2C00445C0040C43F00202040002044220020AF
:100C3C0068000020EC000020485C004048220020A6
:100C4C00405C00404C22002080B500AF00F0A6FBB9
:100C5C00064B1B6800229A7200F0A8F906F07AFF86
:100C6C00034B00221A6000BF80BD00BF1C40002057
:100C7C005422002080B500AF374B1B6800229A72BB
:100C8C00354B1B68354AD2795A72334B1B6800229C
:100C9C00DA72002005F06AFF4FF40071002005F0B5
:100CAC00ABFF1021002005F0E3FF4021002006F0EF
:100CBC0051FB8021002006F02BFB002006F042F9AE
:100CCC00274B93F82C309BB21946002006F0E8FB1A
:100CDC00002006F0C1F80021012005F08DFFC02195
:100CEC00012006F015FB2021012005F0C1FF002199
:100CFC00012005F0F5FF4FF4C061022005F07CFFE8
:100D0C004FF48071022006F003FB0021022005F055
:100D1C00E7FF2021022005F0ABFF0021032005F0A6
:100D2C006BFF4FF48871032006F014FB4021032065
:100D3C0006F0B6FB4FF44051032005F0D1FF002123
:100D4C00032005F095FF002005F0EAFB054B01227E
:100D5C001A6000BF80BD00BF1C400020DC7D000875
:100D6C00680000205422002080B483B000AF074BF1
:100D7C007B607B689B7A002B02D0054B05221A60A6
:100D8C0000BF0C37BD4680BC704700BFFC3F002045
:100D9C005422002080B400AF034B04221A6000BF21
:100DAC00BD4680BC704700BF5422002080B400AF09
:100DBC00054B1B78202B02D1034B00221A7000BF6D
:100DCC00BD4680BC704700BF5022002080B400AFED
:100DDC0000BFBD4680BC704780B584B000AF0346F1
:100DEC00FB710023FB60FB79212B09D1164B1B688F
:100DFC001B7803F07F03212B11D1144BFB600EE009
:100E0C00FB79202B0BD1104B1B681B7803F07F0355
:100E1C00212B01D10E4BFB600E4B20221A70FB686C
:100E2C00002B01D102230BE0074B1B68FA689A6177
:100E3C00054B1B6800225A82FB6800209847002350
:100E4C0018461037BD4680BD1C400020590F0008C5
:100E5C00890F00085022002080B483B000AF0346F5
:100E6C00FB710B4B1B681B7803F07F03212B09D103
:100E7C00FB79022B01D1002305E0FB79222B01D158
:100E8C00002300E0022318460C37BD4680BC704797
:100E9C001C40002080B582B000AF0346FB80FB886D
:100EAC000449184604F082FE034618460837BD462E
:100EBC0080BD00BFBC00002080B582B000AF0346EF
:100ECC00FB80FB880449184604F070FE0346184664
:100EDC000837BD4680BD00BFC400002080B584B07B
:100EEC0000AF0346FB800B4B1B68DB78FB73FB7B73
:100EFC00032B01D9002309E0FB7BDB00064A1A44D3
:100F0C00FB881146184604F051FE0346184610376C
:100F1C00BD4680BD1C400020CC00002080B483B0B6
:100F2C0000AF03460A46FB711346BB71BB79002B1D
:100F3C0001D0022305E0FB79012B01D9022300E04B
:100F4C00002318460C37BD4680BC704780B483B074
:100F5C0000AF0346FB80FB88002B05D1054B1B68BB
:100F6C0008221A82002300E0034B18460C37BD46BA
:100F7C0080BC70471C4000205C00002080B483B013
:100F8C0000AF0346FB80FB88002B05D1054B1B688B
:100F9C0008221A82002300E0034B18460C37BD468A
:100FAC0080BC70471C4000205C00002080B582B0E3
:100FBC0000AF012000F0D8F90123FB800E4AFB881A
:100FCC0013600E4B00221A800B4B0C4A12881A60CD
:100FDC0000BF0B4B1B68002005F084FD074B4FF442
:100FEC00E0521A80044B054A12881A6000231846F6
:100FFC000837BD4680BD00BF405C0040204000204B
:10100C00445C004080B500AF074B01221A60074BCF
:10101C0000221A60002000F0A7F9034B03221A608B
:10102C000023184680BD00BF405C0040445C00407B
:10103C0080B483B000AF00237B60324B1B687B8095
:10104C0000237B600FE07B689B0003F1804303F57A
:10105C00B8431B689BB219462B4A7B6842F8231095
:10106C007B6801337B607B68072BECD97B8843F46E
:10107C0080637B80234A7B8813607B8843F0010369
:10108C007B80204A7B8813607B8823F001037B8064
:10109C001C4A7B88136000BF1C4B1B689BB203F47B
:1010AC008063002BF8D0194B4FF6FF321A600023E7
:1010BC007B600EE07B689B0003F1804303F5B84333
:1010CC0011497A6851F8222092B21A607B68013378
:1010DC007B607B68072BEDD97B8843F008037B8012
:1010EC00084A7B881360074B1B687B807B8843F026
:1010FC0004037B80034A7B88136000BF0C37BD461A
:10110C0080BC7047405C0040CC3F0020445C0040F9
:10111C0080B483B000AF094B1B68FB80FB8823F0C5
:10112C000403FB80054AFB881360044B4FF43F42D9
:10113C001A6000BF0C37BD4680BC7047405C004055
:10114C0080B584B000AF0346FB71FB79072B02D04E
:10115C003F4AFB7913703E4B1B78DBB2052B6BD8E7
:10116C0001A252F823F000BF8D110008A91100084C
:10117C00BB110008C9110008E91100080B12000886
:10118C00344B1B68002B05D1FFF7C2FF304B0622F6
:10119C001A7058E02E4B05221A7054E0FFF7B8FF76
:1011AC002B4B04221A702B4B01221A604BE0284B5C
:1011BC0002225A70264B03221A7044E0244B5B78AF
:1011CC00DBB2013BDAB2224B5A70214B5B78DBB2BB
:1011DC00002B35D11E4B04221A7031E01E4B1B68BC
:1011EC00FB81FB8943F01003FB811B4AFB891360D5
:1011FC00174B05221A70164B0A225A7023E0144B17
:10120C005B78DBB2013BDAB2114B5A70104B5B7856
:10121C00DBB2002B16D1104B1B68FB81FB8923F032
:10122C001003FB810C4AFB891360094B06221A70D0
:10123C00084B00221A6005E0054B06221A7002E0EA
:10124C0000BF00E000BF00BF1037BD4680BD00BF2F
:10125C00C83F002058220020405C004080B582B07E
:10126C0000AF0121042002F0B5F94FF4C053BB804C
:10127C000323BB711823FB713B1D19460D4801F06C
:10128C0065FC01217C2002F0A5F94FF40073BB80B2
:10129C000323BB711423FB713B1D1946064801F057
:1012AC0055FC0121202002F095F900BF0837BD46FE
:1012BC0080BD00BF000801400014014080B500AFA4
:1012CC00002002F03DF801214FF4000002F0A0F9DB
:1012DC0000BF80BD80B582B000AF094B7B607B68DE
:1012EC009B7A002B03D0074B05221A6002E0054BBA
:1012FC0001221A6000F09EF900BF0837BD4680BD80
:10130C00FC3F00205422002080B582B000AF4FF487
:10131C00A06000F0B5FA14233B7100237B7100230D
:10132C00BB710123FB713B1D184600F0BBFA2A234D
:10133C003B7100237B713B1D184600F0B3FA25234B
:10134C003B7100237B713B1D184600F0ABFA0E235A
:10135C003B7100237B713B1D184600F0A3FA00BFC4
:10136C000837BD4680BD00BF80B582B000AF0346D4
:10137C00FB71FB79002B05D04FF40071064801F08E
:10138C000FFD04E04FF40071034801F0FBFC00BFBB
:10139C000837BD4680BD00BF0014014080B584B045
:1013AC0000AF0F4B1B68FB600E4B1B68BB600E4BFA
:1013BC001B687B60FA687B681344FB60FB68002B3E
:1013CC0009D008220949F86800F014F804220849E9
:1013DC00B86800F00FF800BF1037BD4680BD00BFE5
:1013EC00E8F7FF1FECF7FF1FF0F7FF1F0A000020C4
:1013FC001A00002080B487B000AFF860B9601346C3
:10140C00FB710023FB750023FB7527E0FB681B0FAA
:10141C00092B0BD8FB7D5B001A46BB681344FA689A
:10142C00120FD2B23032D2B21A700AE0FB7D5B00DE
:10143C001A46BB681344FA68120FD2B23732D2B2D2
:10144C001A70FB681B01FB60FB7D5B000133BA6803
:10145C00134400221A70FB7D0133FB75FA7DFB7976
:10146C009A42D3D300BF1C37BD4680BC704700BF27
:10147C0080B400AF00BFBD4680BC704780B400AFE5
:10148C00FEE700BF80B400AFFEE700BF80B400AF42
:10149C00FEE700BF80B400AFFEE700BF80B400AF32
:1014AC0000BFBD4680BC704780B400AF00BFBD46D6
:1014BC0080BC704780B400AF00BFBD4680BC704795
:1014CC0080B400AF00BFBD4680BC704780B500AF94
:1014DC00022001F06DF90346002B46D0022001F0EA
:1014EC008FF90021224802F06DFE224B1B78DBB2F3
:1014FC00012B03D1204B01221A7036E01D4B1B78B7
:10150C00DBB2012B31D91D4B1B78DAB2194B1B788E
:10151C00DBB29A4206D11A4B05221A70164B0222E4
:10152C001A701BE0154B1B78DAB2124B1B78DBB22E
:10153C009A420BD2114B1B78DBB2012B06D9104B04
:10154C0005221A700C4B03221A7007E00B4B1B7808
:10155C00DBB2012B02D1084B04221A70074B1B780B
:10156C00DBB2013BDAB2054B1A7000BF80BD00BF85
:10157C00000800404022002042220020412200208E
:10158C005E05002080B500AF01211B4803F028FE4A
:10159C000346002B09D00121174803F04BFE174AD4
:1015AC00164BDB6883F40053D360154B1B78DBB20E
:1015BC00052B08D1134A134B1B889BB243F0010334
:1015CC009BB2138007E00E4B1B78DBB2022B02D1CF
:1015DC000D4B01221A700A4B1B78DBB20133DAB2C5
:1015EC00074B1A70064B1B78DBB2202B02D9044B2D
:1015FC0020221A7000BF80BD002C01400010014059
:10160C005E050020000800405F05002080B500AF9B
:10161C00FFF706FA00BF80BD80B400AF00BFBD4627
:10162C0080BC704780B500AF4FF4802001F002FA07
:10163C0000BF80BD80B500AF154A154B1B6843F049
:10164C00010313601249124B5A68124B13404B6042
:10165C000F4A0F4B1B6823F0847323F48033136001
:10166C000B4A0B4B1B6823F480231360084A084B6E
:10167C005B6823F4FE035360054B4FF41F029A6022
:10168C0000F078F8044B4FF000629A6000BF80BD08
:10169C00001002400000FFF800ED00E080B485B0BF
:1016AC0000AF0023FB600023BB6000237B602C4B4E
:1016BC005B6803F00C03FB60FB68042B07D0082B62
:1016CC0009D0002B33D1274B274A1A6033E0254B26
:1016DC00254A1A602FE0224B5B6803F47013BB6041
:1016EC001F4B5B6803F480337B60BB689B0C02333D
:1016FC00BB607B68002B06D1BB681C4A02FB03F362
:10170C00184A136017E0164B5B6803F40033002B88
:10171C0006D0BB68154A02FB03F3124A13600AE0B9
:10172C00BB68114A02FB03F30E4A136003E00D4B36
:10173C000D4A1A6000BF0A4B5B6803F0F0031B09EB
:10174C000B4AD35CDBB2FB60064B1A68FB6822FACF
:10175C0003F3044A136000BF1437BD4680BC7047C6
:10176C0000100240F000002000127A0000093D0039
:10177C00F400002080B500AF00F002F800BF80BD7F
:10178C0080B483B000AF00237B6000233B603A4AF7
:10179C00394B1B6843F480331360374B1B6803F4DD
:1017AC0000333B607B6801337B603B68002B03D1CB
:1017BC007B68B3F5A06FF0D12F4B1B6803F400339B
:1017CC00002B02D001233B6001E000233B603B680F
:1017DC00012B4BD1294A294B1B6843F01003136092
:1017EC00264A264B1B6823F007031360234A234B1E
:1017FC001B6843F0020313601F4A1F4B5B68536066
:10180C001D4A1D4B5B6853601B4A1B4B5B6843F4C2
:10181C0080635360184A184B5B6823F47C13536045
:10182C00154A154B5B6843F4E8135360124A124B8C
:10183C001B6843F08073136000BF0F4B1B6803F0F1
:10184C000073002BF9D00C4A0B4B5B6823F003039D
:10185C005360094A084B5B6843F00203536000BFB6
:10186C00054B5B6803F00C03082BF9D100BF0C3758
:10187C00BD4680BC704700BF0010024000200240F3
:10188C0080B483B000AF7860054A7B6843F0BF63D7
:10189C0043F40033D36000BF0C37BD4680BC7047A7
:1018AC0000ED00E080B487B000AF786000237B616E
:1018BC0000233B610F23FB607B68DB78002B3AD065
:1018CC00274BDB68DB4303F4E0631B0A7B617B691A
:1018DC00C3F104033B61FA687B6922FA03F3FB60F2
:1018EC007B685B781A463B6902FA03F37B617B6881
:1018FC009B781A46FB6813407A6913437B617B69BA
:10190C001B017B61174A7B681B787969C9B2134448
:10191C000A4683F80023134A7B681B785B09DBB209
:10192C0018467B681B7803F01F03012101FA03F3AF
:10193C0042F820300FE00B497B681B785B09DBB267
:10194C0018467B681B7803F01F0301229A4000F1B4
:10195C00200341F8232000BF1C37BD4680BC7047D4
:10196C0000ED00E000E100E080B483B000AF7860EF
:10197C00396007493B6823F0604323F07F037A68A2
:10198C0013438B6000BF0C37BD4680BC704700BF53
:10199C0000ED00E080B483B000AF03460A46FB7153
:1019AC001346BB71BB79002B06D00949084B1A6949
:1019BC00FB7913430B6106E00549054B1A69FB796A
:1019CC00DB4313400B6100BF0C37BD4680BC704736
:1019DC0000ED00E080B483B000AF78607B68042B2E
:1019EC0006D1094A084B1B6843F00403136005E059
:1019FC00054A054B1B6823F00403136000BF0C372A
:101A0C00BD4680BC704700BF10E000E080B582B0DE
:101A1C0000AF78607B68174A93420AD101214FF4DA
:101A2C00007001F013FE00214FF4007001F00EFE67
:101A3C001CE07B68104A93420AD101214FF480606C
:101A4C0001F004FE00214FF4806001F0FFFD0DE079
:101A5C007B680A4A934209D101214FF4004001F0FE
:101A6C00F5FD00214FF4004001F0F0FD00BF0837F8
:101A7C00BD4680BD0024014000280140003C0140CF
:101A8C0080B485B000AF786039600023FB60002320
:101A9C00FB727B685B68FB60FB6823F4702323F4A8
:101AAC008073FB603B681A683B681B791B0213430D
:101ABC00FA681343FB607B68FA685A607B689B6822
:101ACC00FB60FA68164B1340FB603B68DA683B68B6
:101ADC009B681A433B685B795B001343FA681343BA
:101AEC00FB607B68FA689A607B68DB6AFB60FB686A
:101AFC0023F47003FB603B681B7C013BDAB2FB7A7E
:101B0C001343FB72FB7A1B05FA681343FB607B687B
:101B1C00FA68DA6200BF1437BD4680BC704700BF5C
:101B2C00FDF7F1FF80B483B000AF78607B680022D2
:101B3C001A607B6800221A717B6800225A717B68DC
:101B4C0000229A607B680022DA607B6801221A749A
:101B5C0000BF0C37BD4680BC704700BF80B483B05B
:101B6C0000AF78600B46FB70FB78002B06D07B68CF
:101B7C009B6843F001027B689A6005E07B689B6878
:101B8C0023F001027B689A6000BF0C37BD4680BC15
:101B9C00704700BF80B483B000AF78600B46FB7019
:101BAC00FB78002B06D07B689B6843F480727B68C3
:101BBC009A6005E07B689B6823F480727B689A606E
:101BCC0000BF0C37BD4680BC704700BF80B485B0E9
:101BDC0000AF78600B467B8013467B700023FB7351
:101BEC007B88FB737B78002B06D07B685A68FB7B69
:101BFC001A437B685A6006E07B685A68FB7BDB43C0
:101C0C001A407B685A6000BF1437BD4680BC7047D1
:101C1C0080B483B000AF78607B689B6843F00802A7
:101C2C007B689A6000BF0C37BD4680BC704700BF14
:101C3C0080B485B000AF78600023FB737B689B6831
:101C4C0003F00803002B02D00123FB7301E00023F7
:101C5C00FB73FB7B18461437BD4680BC704700BF36
:101C6C0080B483B000AF78607B689B6843F004025B
:101C7C007B689A6000BF0C37BD4680BC704700BFC4
:101C8C0080B485B000AF78600023FB737B689B68E1
:101C9C0003F00403002B02D00123FB7301E00023AB
:101CAC00FB73FB7B18461437BD4680BC704700BFE6
:101CBC0080B483B000AF78600B46FB70FB78002BD0
:101CCC0006D07B689B6843F4A0027B689A6005E0B1
:101CDC007B689B6823F4A0027B689A6000BF0C377A
:101CEC00BD4680BC704700BF80B485B000AF786043
:101CFC000023FB737B689B6803F48003002B02D0EA
:101D0C000123FB7301E00023FB73FB7B18461437A4
:101D1C00BD4680BC704700BF80B485B000AF786012
:101D2C000B46FB700023FB600023BB607B685B6889
:101D3C00FB60FB6823F46043FB60FB78013BBB60FA
:101D4C00BB685B03FA681343FB607B68FA685A60F4
:101D5C0000BF1437BD4680BC704700BF80B483B051
:101D6C0000AF78600B46FB70FB78002B06D07B68CD
:101D7C005B6843F400627B685A6005E07B685B68D3
:101D8C0023F400627B685A6000BF0C37BD4680BCF0
:101D9C00704700BF80B485B000AF7860084611462C
:101DAC001A460346FB700B46BB7013467B70002330
:101DBC00FB600023BB60FB78092B23D97B68DB68B5
:101DCC00FB60FB78A3F10A0213465B001344072265
:101DDC0002FA03F3BB60BB68DB43FA681340FB6099
:101DEC007978FB78A3F10A0213465B00134401FADD
:101DFC0003F3BB60FA68BB681343FB607B68FA684B
:101E0C00DA601EE07B681B69FB60FA7813465B00A6
:101E1C001344072202FA03F3BB60BB68DB43FA6886
:101E2C001340FB607978FA7813465B00134401FA8F
:101E3C0003F3BB60FA68BB681343FB607B68FA680A
:101E4C001A61BB78062B21D87B685B6BFB60BB7877
:101E5C005A1E13469B0013441F2202FA03F3BB6065
:101E6C00BB68DB43FA681340FB60F978BB785A1EF9
:101E7C0013469B00134401FA03F3BB60FA68BB687A
:101E8C001343FB607B68FA685A6347E0BB780C2B02
:101E9C0021D87B681B6BFB60BB78DA1F13469B0059
:101EAC0013441F2202FA03F3BB60BB68DB43FA68DE
:101EBC001340FB60F978BB78DA1F13469B00134480
:101ECC0001FA03F3BB60FA68BB681343FB607B68E1
:101EDC00FA681A6322E07B68DB6AFB60BB78A3F1CB
:101EEC000D0213469B0013441F2202FA03F3BB603E
:101EFC00BB68DB43FA681340FB60F978BB78A3F14D
:101F0C000D0213469B00134401FA03F3BB60FA68FD
:101F1C00BB681343FB607B68FA68DA6200BF143756
:101F2C00BD4680BC704700BF80B483B000AF786002
:101F3C000B46FB70FB78002B06D07B689B6843F448
:101F4C0080127B689A6005E07B689B6823F48012A2
:101F5C007B689A6000BF0C37BD4680BC704700BFE1
:101F6C0080B483B000AF78607B68DB6C9BB21846A2
:101F7C000C37BD4680BC704780B400AF024B1B6869
:101F8C001846BD4680BC70474C24014080B483B0D9
:101F9C0000AF78600B46FB70FB78002B06D07B689B
:101FAC005B6843F480627B685A6005E07B685B6821
:101FBC0023F480627B685A6000BF0C37BD4680BC3E
:101FCC00704700BF80B483B000AF78600B46FB70E5
:101FDC00FB78002B06D07B685B6843F480527B68EF
:101FEC005A6005E07B685B6823F480527B685A601A
:101FFC0000BF0C37BD4680BC704700BF80B485B0B5
:10200C0000AF786039600023FB607B689B68FB60E5
:10201C00FB6823F4E043FB60FA683B681343FB6006
:10202C007B68FA689A6000BF1437BD4680BC704765
:10203C0080B483B000AF78600B46FB70FB78002B4C
:10204C0006D07B689B6843F400427B689A6005E08D
:10205C007B689B6823F400427B689A6000BF0C3756
:10206C00BD4680BC704700BF80B483B000AF7860C1
:10207C000B46FB70FB78002B06D07B689B6843F407
:10208C0002127B689A6005E07B689B6823F402125D
:10209C007B689A6000BF0C37BD4680BC704700BFA0
:1020AC0080B485B000AF78600023FB737B689B68BD
:1020BC0003F40013002B02D00123FB7301E0002377
:1020CC00FB73FB7B18461437BD4680BC704700BFC2
:1020DC0080B487B000AF7860084611461A460346B4
:1020EC00FB700B46BB7013467B7000237B61002397
:1020FC003B610023FB60FB78092B23D97B68DB68F1
:10210C007B61FB78A3F10A0213465B0013440722A0
:10211C0002FA03F33B613B69DB437A6913407B6151
:10212C007978FB78A3F10A0213465B00134401FA99
:10213C0003F33B617A693B6913437B617B687A6982
:10214C00DA601EE07B681B697B61FA7813465B00E2
:10215C001344072202FA03F33B613B69DB437A69C0
:10216C0013407B617978FA7813465B00134401FACB
:10217C0003F33B617A693B6913437B617B687A6942
:10218C001A617B689B6B7B617B691B0D03F00303FE
:10219C00FB60FB68DBB2BA78D31ADBB20233DBB27A
:1021AC001A4613469B0013441F2202FA03F33B61A9
:1021BC003B69DB437A6913407B61FA78FB68DBB2DD
:1021CC00B978CB1ADBB20233DBB219460B469B0053
:1021DC000B4402FA03F33B617A693B6913437B615D
:1021EC007B687A699A6300BF1C37BD4680BC704718
:1021FC0080B485B000AF78600B46FB700023FB60A9
:10220C000023BB607B689B6BFB60FB6823F4401373
:10221C00FB60FB78013BBB60BB681B05FA68134392
:10222C00FB607B68FA689A6300BF1437BD4680BCBC
:10223C00704700BF80B485B000AF78600B46FB7070
:10224C0013463B800023FB607B68FB60FA78FB68DD
:10225C001344FB60FB681A463B88136000BF1437BD
:10226C00BD4680BC704700BF80B485B000AF7860BD
:10227C000B46FB700023FB607B68FB60FA78FB6805
:10228C0013442833FB60FB681B689BB21846143759
:10229C00BD4680BC704700BF80B485B000AF78608D
:1022AC0039600023FB607B685B68FB60FB6823F490
:1022BC00400323F40073FB60FA683B681343FB6034
:1022CC007B68FA685A6000BF1437BD4680BC704703
:1022DC0080B483B000AF78600B467B8013463B80A4
:1022EC007A887B685A623A887B689A6200BF0C379E
:1022FC00BD4680BC704700BF80B485B000AF78602D
:10230C000B46FB700023FB607B685B68FB60FB6823
:10231C0023F01F03FB60FB78FA681343FB607B68B8
:10232C00FA685A6000BF1437BD4680BC704700BFC6
:10233C0080B483B000AF0346FB71FB79002B06D051
:10234C00084A084B9B6843F40003936005E0054A78
:10235C00044B9B6823F40003936000BF0C37BD460D
:10236C0080BC70470024014080B485B000AF786019
:10237C000B46FB700023FB737B681A68FB781340D9
:10238C00002B02D00123FB7301E00023FB73FB7BCA
:10239C0018461437BD4680BC704700BF80B483B06C
:1023AC0000AF78600B46FB70FB78DA437B681A60F1
:1023BC0000BF0C37BD4680BC704700BF80B487B0EF
:1023CC0000AF78600B467B800023FB7500233B61DC
:1023DC000023FB607B881B0A9BB23B617B685B68BC
:1023EC007A88D2B21340FB607B681A683B69134051
:1023FC00002B05D0FB68002B02D00123FB7501E0FC
:10240C000023FB75FB7D18461C37BD4680BC70470E
:10241C0080B485B000AF78600B467B800023FB73E3
:10242C007B881B0A9BB2FB73FB7BDA437B681A60CD
:10243C0000BF1437BD4680BC704700BF80B483B06A
:10244C0000AF78607B681A684FF6FE7313407A68A9
:10245C0013607B6800221A607B6800225A607B68DC
:10246C0000229A607B680022DA607B68434A9342C0
:10247C0006D1434A424B5B6843F00F03536077E04D
:10248C007B68404A934206D13D4A3D4B5B6843F022
:10249C00F00353606CE07B683B4A934206D1384AA8
:1024AC00374B5B6843F47063536061E07B68374A79
:1024BC00934206D1324A324B5B6843F4704353600B
:1024CC0056E07B68324A934206D12D4A2C4B5B680E
:1024DC0043F4702353604BE07B682E4A934206D141
:1024EC00274A274B5B6843F47003536040E07B68DA
:1024FC00294A934206D1224A214B5B6843F0706310
:10250C00536035E07B68254A934206D1244A244B1C
:10251C005B6843F00F0353602AE07B68214A9342C7
:10252C0006D11F4A1E4B5B6843F0F00353601FE05B
:10253C007B681D4A934206D1194A194B5B6843F4D8
:10254C007063536014E07B68184A934206D1144AB6
:10255C00134B5B6843F47043536009E07B68144A87
:10256C00934205D10E4A0E4B5B6843F470235360C3
:10257C0000BF0C37BD4680BC704700BF080002404E
:10258C00000002401C0002403000024044000240A7
:10259C00580002406C0002408000024008040240D7
:1025AC00000402401C040240300402404404024077
:1025BC005804024080B485B000AF786039600023C5
:1025CC00FB607B681B68FB60FB6823F4FF4323F014
:1025DC007003FB603B689A683B681B6A1A433B6854
:1025EC001B691A433B685B691A433B689B691A4336
:1025FC003B68DB691A433B685B6A1A433B689B6A1E
:10260C001343FA681343FB607B68FA681A603B68F3
:10261C00DA687B685A603B681A687B689A603B682A
:10262C005A687B68DA6000BF1437BD4680BC7047BF
:10263C0080B483B000AF78607B6800221A607B683E
:10264C0000225A607B6800229A607B680022DA6064
:10265C007B6800221A617B6800225A617B68002229
:10266C009A617B680022DA617B6800221A627B68BF
:10267C0000225A627B6800229A6200BF0C37BD466A
:10268C0080BC704780B483B000AF78600B46FB70A1
:10269C00FB78002B06D07B681B6843F001027B683B
:1026AC001A6006E07B681A684FF6FE7313407A686E
:1026BC00136000BF0C37BD4680BC704780B485B03A
:1026CC0000AFF860B9601346FB71FB79002B06D0A4
:1026DC00FB681A68BB681A43FB681A6006E0FB6863
:1026EC001A68BB68DB431A40FB681A6000BF1437DA
:1026FC00BD4680BC704700BF80B483B000AF78602B
:10270C000B467B807A887B685A6000BF0C37BD46CD
:10271C0080BC704780B483B000AF78607B685B6826
:10272C009BB218460C37BD4680BC704780B485B050
:10273C0000AF78600023FB730023BB607B6803F061
:10274C008053002B03D00B4B1B68BB6002E00A4B81
:10275C001B68BB60BA687B681340002B02D0012356
:10276C00FB7301E00023FB73FB7B18461437BD465B
:10277C0080BC7047000402400000024080B483B06B
:10278C0000AF78607B6803F08053002B03D0064ABF
:10279C007B68536002E0054A7B68536000BF0C37CE
:1027AC00BD4680BC704700BF0004024000000240E0
:1027BC0080B485B000AF78600023FB730023BB604E
:1027CC007B6803F08053002B03D00B4B1B68BB6062
:1027DC0002E00A4B1B68BB60BA687B681340002B95
:1027EC0002D00123FB7301E00023FB73FB7B184633
:1027FC001437BD4680BC7047000402400000024004
:10280C0080B483B000AF78607B6803F08053002BFA
:10281C0003D0064A7B68536002E0054A7B6853602C
:10282C0000BF0C37BD4680BC704700BF000402409F
:10283C000000024080B400AF094B00221A60084B24
:10284C0000225A60064B00229A60054B0022DA6087
:10285C00034B044A5A6100BFBD4680BC704700BFA1
:10286C0000040140FFFF0F0080B485B000AF78601A
:10287C000023FB60344BFB607B689B79002B4FD0B3
:10288C003149314B1A687B681B68DB4313400B6082
:10289C002D492D4B5A687B681B68DB4313404B60FA
:1028AC007B681B791A46FB681344FB60FB68FA686B
:1028BC0011687A6812680A431A602349224B9A6895
:1028CC007B681B68DB4313408B601F491E4BDA6827
:1028DC007B681B68DB431340CB607B685B79102BF8
:1028EC000ED11949184B9A687B681B6813438B608F
:1028FC001549154BDA687B681B681343CB601DE0E8
:10290C00114BFB607B685B791A46FB681344FB60D8
:10291C00FB68FA6811687A6812680A431A600DE05D
:10292C007B681B791A46FB681344FB60FB68FA68EA
:10293C0011687A681268D2430A401A6000BF1437D3
:10294C00BD4680BC704700BF0004014080B483B01A
:10295C0000AF78607B6800221A607B6800221A71D5
:10296C007B680C225A717B6800229A7100BF0C376D
:10297C00BD4680BC704700BF80B483B000AF7860A8
:10298C000549054B1A697B6813430B6100BF0C3773
:10299C00BD4680BC704700BF0004014080B485B0C8
:1029AC0000AF78600023FB73084B5A697B681340B7
:1029BC00002B02D00123FB7301E00023FB73FB7B94
:1029CC0018461437BD4680BC704700BF0004014058
:1029DC0080B483B000AF7860034A7B68536100BF5A
:1029EC000C37BD4680BC70470004014080B485B0F4
:1029FC0000AF78600023FB730023BB600C4B1A689C
:102A0C007B681340BB600A4B5A697B681340002BF0
:102A1C0005D0BB68002B02D00123FB7301E000231F
:102A2C00FB73FB7B18461437BD4680BC704700BF58
:102A3C000004014080B483B000AF7860034A7B6827
:102A4C00536100BF0C37BD4680BC70470004014089
:102A5C0080B582B000AF78607B682F4A934208D172
:102A6C000121042000F0F2FD0021042000F0EEFD15
:102A7C004EE07B68294A934208D10121082000F0DE
:102A8C00E5FD0021082000F0E1FD41E07B68244ACF
:102A9C00934208D10121102000F0D8FD0021102014
:102AAC0000F0D4FD34E07B681E4A934208D101212A
:102ABC00202000F0CBFD0021202000F0C7FD27E0F6
:102ACC007B68194A934208D10121402000F0BEFDD9
:102ADC000021402000F0BAFD1AE07B68134A9342B3
:102AEC0008D10121802000F0B1FD0021802000F0F0
:102AFC00ADFD0DE07B680E4A934209D101214FF4E4
:102B0C00807000F0A3FD00214FF4807000F09EFD5A
:102B1C0000BF0837BD4680BD00080140000C0140D5
:102B2C00001001400014014000180140001C01403D
:102B3C000020014080B500AF0121012000F086FD8E
:102B4C000021012000F082FD00BF80BD80B489B05F
:102B5C0000AF786039600023FB6100233B610023E8
:102B6C00BB610023FB6000237B610023BB603B68DF
:102B7C00DB7803F00F03FB613B68DB7803F0100399
:102B8C00002B05D03B689B781A46FB691343FB610D
:102B9C003B681B88DBB2002B44D07B681B687B61D5
:102BAC000023BB6138E00122BB6902FA03F3FB602E
:102BBC003B681B881A46FB6813403B613A69FB680B
:102BCC009A4226D1BB699B00FB600F22FB6802FA7C
:102BDC0003F3BB60BB68DB437A6913407B61FA6922
:102BEC00FB6802FA03F37A6913437B613B68DB7879
:102BFC00282B05D10122BB699A407B685A6108E0F9
:102C0C003B68DB78482B04D10122BB699A407B6876
:102C1C001A61BB690133BB61BB69072BC3D97B68E4
:102C2C007A691A603B681B88FF2B46D97B685B6806
:102C3C007B610023BB613AE0BB690833012202FAD5
:102C4C0003F3FB603B681B881A46FB6813403B612F
:102C5C003A69FB689A4227D1BB699B00FB600F2243
:102C6C00FB6802FA03F3BB60BB68DB437A69134071
:102C7C007B61FA69FB6802FA03F37A6913437B619F
:102C8C003B68DB78282B05D1BB69083301229A40BD
:102C9C007B685A613B68DB78482B05D1BB690833EC
:102CAC0001229A407B681A61BB690133BB61BB6925
:102CBC00072BC1D97B687A695A6000BF2437BD469F
:102CCC0080BC704780B483B000AF78607B684FF6EF
:102CDC00FF721A807B6802229A707B680422DA7079
:102CEC0000BF0C37BD4680BC704700BF80B485B0B8
:102CFC0000AF78600B467B800023FB737B689A687F
:102D0C007B881340002B02D00123FB7301E00023CE
:102D1C00FB73FB7B18461437BD4680BC704700BF65
:102D2C0080B483B000AF78607B689B689BB2184618
:102D3C000C37BD4680BC704780B485B000AF78605E
:102D4C000B467B800023FB737B68DA687B8813401F
:102D5C00002B02D00123FB7301E00023FB73FB7BF0
:102D6C0018461437BD4680BC704700BF80B483B092
:102D7C0000AF78607B68DB689BB218460C37BD46A9
:102D8C0080BC704780B483B000AF78600B467B800A
:102D9C007A887B681A6100BF0C37BD4680BC7047CF
:102DAC0080B483B000AF78600B467B807A887B68F8
:102DBC005A6100BF0C37BD4680BC704780B483B0ED
:102DCC0000AF78600B467B8013467B707B78002BC2
:102DDC0003D07A887B681A6102E07A887B685A6132
:102DEC0000BF0C37BD4680BC704700BF80B483B0B9
:102DFC0000AF78600B467B807A887B68DA6000BF16
:102E0C000C37BD4680BC704780B485B000AF78608D
:102E1C000B467B804FF48033FB607B88FA6813434E
:102E2C00FB607B68FA689A617A887B689A617B6838
:102E3C00FA689A617B689B69FB607B689B69FB60A5
:102E4C0000BF1437BD4680BC704700BF80B485B04E
:102E5C0000AF03460A46FB711346BB710023FB60AF
:102E6C000C4B1B68FB60FA684FF680731340FB60D9
:102E7C00FB791B01FA681343FB60BB79FA681343B7
:102E8C00FB60044AFB68136000BF1437BD4680BC6E
:102E9C00704700BF0000014080B483B000AF034610
:102EAC00FB71044AFB79136000BF0C37BD4680BC34
:102EBC00704700BF1C00204280B487B000AF786020
:102ECC000B46FB7000233B610023FB6000237B61FE
:102EDC000023BB607B68002B03DA2E4BDB697B6124
:102EEC0002E02C4B5B687B617B681B0C03F00F03CF
:102EFC00BB607B689BB23B617B6803F44013B3F50A
:102F0C00401F0AD17B6923F070637B61214A214BFE
:102F1C005B6823F07063536021E07B6803F48013DB
:102F2C00002B0ED00322BB6802FA03F3FB60FB6894
:102F3C00DB437A6913407B617B6943F070637B618F
:102F4C000DE07B685B0D1B013A6902FA03F3DB436E
:102F5C007A6913407B617B6943F070637B61FB781A
:102F6C00002B08D07B685B0D1B013A6902FA03F356
:102F7C007A6913437B617B68002B03DA054A7B6912
:102F8C00D36102E0034A7B69536000BF1C37BD4626
:102F9C0080BC70470000014090B484B000AF034681
:102FAC000A46FB711346BB710023FB60BB7903F02F
:102FBC0003039B000F2202FA03F3FB601649BB7953
:102FCC009B08DBB21846144ABB799B08DBB2023370
:102FDC0052F82320FB68DB431A40831C41F8232062
:102FEC000D48BB799B08DBB21C460B4ABB799B088E
:102FFC00DBB2023352F82320F979BB7903F00303D7
:10300C009B0001FA03F31A43A31C40F8232000BFD2
:10301C001037BD4690BC70470000014080B483B0AF
:10302C0000AF7860034A7B68136000BF0C37BD4665
:10303C0080BC7047DC00204280B400AF134A134BB5
:10304C001B6843F0010313601049104B5A68104B76
:10305C0013404B600D4A0D4B1B6823F0847323F413
:10306C0080331360094A094B1B6823F480231360D7
:10307C00064A064B5B6823F4FE035360034B4FF484
:10308C001F029A6000BFBD4680BC70470010024012
:10309C000000FFF880B483B000AF7860134A134B84
:1030AC001B6823F480331360104A104B1B6823F405
:1030BC00802313607B68B3F5803F03D0B3F5802F7A
:1030CC0007D00DE0094A094B1B6843F480331360A9
:1030DC0006E0064A054B1B6843F4A023136000BFAF
:1030EC0000BF0C37BD4680BC704700BF00100240CB
:1030FC0080B582B000AF00233B600023FB7100233E
:10310C00BB71312000F00EFB0346BB713B680133F1
:10311C003B603B68B3F5A06F02D0BB79002BF0D0BD
:10312C00312000F0FFFA0346002B02D00123FB7183
:10313C0001E00023FB71FB7918460837BD4680BDC2
:10314C0080B485B000AF0346FB710023FB600A4BD3
:10315C001B68FB60FB6823F0F803FB60FB79DB006A
:10316C00FA681343FB60044AFB68136000BF143712
:10317C00BD4680BC704700BF0010024080B483B0D5
:10318C0000AF0346FB71044AFB79136000BF0C3798
:10319C00BD4680BC704700BF0000424280B485B081
:1031AC0000AF786039600023FB600A4B5B68FB6002
:1031BC00FB6823F47C13FB607A683B681343FA6862
:1031CC001343FB60034AFB68536000BF1437BD46D2
:1031DC0080BC70470010024080B483B000AF03463F
:1031EC00FB71044AFB79136000BF0C37BD4680BCF1
:1031FC00704700BF6000424280B485B000AF786079
:10320C000023FB60094B5B68FB60FB6823F0030346
:10321C00FB60FA687B681343FB60044AFB685360ED
:10322C0000BF1437BD4680BC704700BF0010024081
:10323C0080B400AF044B5B68DBB203F00C03DBB271
:10324C001846BD4680BC70470010024080B485B063
:10325C0000AF78600023FB60094B5B68FB60FB6888
:10326C0023F0F003FB60FA687B681343FB60044AAD
:10327C00FB68536000BF1437BD4680BC704700BF6D
:10328C000010024080B485B000AF78600023FB6072
:10329C00094B5B68FB60FB6823F4E063FB60FA6836
:1032AC007B681343FB60044AFB68536000BF143710
:1032BC00BD4680BC704700BF0010024080B485B092
:1032CC0000AF78600023FB60094B5B68FB60FB6818
:1032DC0023F46053FB607B68DB00FA681343FB60EC
:1032EC00034AFB68536000BF1437BD4680BC70476F
:1032FC000010024080B483B000AF03460A46FB7155
:10330C001346BB71BB79002B08D00C490B4B1B78B7
:10331C00DAB2FB791343DBB20B7009E00749074BB8
:10332C001B78DAB2FB79DB43DBB21340DBB20B70F8
:10333C0000BF0C37BD4680BC704700BF091002406F
:10334C0080B483B000AF7860034A7B68136000BF21
:10335C000C37BD4680BC7047D800424280B485B063
:10336C0000AF78600023FB60094B5B68FB60FB6877
:10337C0023F44043FB60FA687B681343FB60044A08
:10338C00FB68536000BF1437BD4680BC704700BF5C
:10339C000010024080B483B000AF0346FB710C4BAD
:1033AC0000221A700A4B00221A70FB79012B02D0F2
:1033BC00042B04D007E0064B01221A7003E0044BE7
:1033CC0005221A7000BF00BF0C37BD4680BC704789
:1033DC002010024080B483B000AF0346FB71044A56
:1033EC00FB79136000BF0C37BD4680BC704700BF33
:1033FC008004424280B483B000AF78600549054B2D
:10340C001A6A7B6813430B6200BF0C37BD4680BC45
:10341C00704700BF0010024080B483B000AF034679
:10342C00FB71044AFB79136000BF0C37BD4680BCAE
:10343C00704700BF3C04424280B487B000AF786054
:10344C0000237B6100233B610023FB600023BB60F6
:10345C004C4B5B6803F00C037B617B69042B07D03E
:10346C00082B09D0002B33D17B68474A1A6033E014
:10347C007B68454A1A602FE0424B5B6803F470137B
:10348C003B61404B5B6803F48033FB603B699B0CF6
:10349C0002333B61FB68002B06D13B693B4A02FBC4
:1034AC0003F27B681A6017E0364B5B6803F4003359
:1034BC00002B06D03B69354A02FB03F27B681A608D
:1034CC000AE03B69304A02FB03F27B681A6003E0B6
:1034DC007B682D4A1A6000BF2A4B5B6803F0F0032F
:1034EC007B617B691B097B61294A7B6913441B78CF
:1034FC00DBB2BB607B681A68BB68DA407B685A60D9
:10350C00204B5B6803F4E0637B617B691B0A7B6186
:10351C001F4A7B6913441B78DBB2BB607B685A681B
:10352C00BB68DA407B689A60164B5B6803F46053A7
:10353C007B617B69DB0A7B61154A7B6913441B78D1
:10354C00DBB2BB607B685A68BB68DA407B68DA60C8
:10355C000C4B5B6803F440437B617B699B0B7B6189
:10356C000C4A7B6913441B78DBB2BB607B68DA685E
:10357C00BB68B2FBF3F27B681A6100BF1C37BD4617
:10358C0080BC70470010024000127A0000093D0018
:10359C00040100201401002080B483B000AF7860D7
:1035AC000B46FB70FB78002B06D00949084B5A6977
:1035BC007B6813434B6106E00549054B5A697B68F0
:1035CC00DB4313404B6100BF0C37BD4680BC7047DA
:1035DC000010024080B483B000AF78600B46FB70E3
:1035EC00FB78002B06D00949084B9A697B6813437A
:1035FC008B6106E00549054B9A697B68DB431340F8
:10360C008B6100BF0C37BD4680BC70470010024078
:10361C0080B483B000AF78600B46FB70FB78002B56
:10362C0006D00949084BDA697B681343CB6106E085
:10363C000549054BDA697B68DB431340CB6100BF5E
:10364C000C37BD4680BC70470010024080B483B07C
:10365C0000AF78600B46FB70FB78002B06D0094955
:10366C00084BDA687B681343CB6006E00549054BD1
:10367C00DA687B68DB431340CB6000BF0C37BD4678
:10368C0080BC70470010024080B483B000AF7860FB
:10369C000B46FB70FB78002B06D00949084B1A69C6
:1036AC007B6813430B6106E00549054B1A697B687F
:1036BC00DB4313400B6100BF0C37BD4680BC704729
:1036CC000010024080B483B000AF0346FB71044A83
:1036DC00FB79136000BF0C37BD4680BC704700BF40
:1036EC004004424280B483B000AF0346FB71044AED
:1036FC00FB79136000BF0C37BD4680BC704700BF20
:10370C004C00424280B483B000AF0346FB71044AC4
:10371C00FB79137000BF0C37BD4680BC704700BFEF
:10372C000710024080B487B000AF0346FB71002342
:10373C00FB6000237B610023FB74FB795B09DBB22C
:10374C00FB60FB68012B03D1124B1B687B6109E00A
:10375C00FB68022B03D10F4B1B6A7B6102E00D4B04
:10376C005B6A7B61FB7903F01F03FB607A69FB6882
:10377C0022FA03F303F00103002B02D00123FB74A4
:10378C0001E00023FB74FB7C18461C37BD4680BC53
:10379C00704700BF0010024080B400AF044A044BD5
:1037AC005B6A43F08073536200BFBD4680BC7047B8
:1037BC000010024080B485B000AF0346FB710023BB
:1037CC00FB73084B9A68FB791340002B02D0012342
:1037DC00FB7301E00023FB73FB7B18461437BD46DB
:1037EC0080BC70470010024080B483B000AF034629
:1037FC00FB71044AFB79137000BF0C37BD4680BCCB
:10380C00704700BF0A10024080B582B000AF7860EC
:10381C007B68784A93420AD101214FF40060FFF78C
:10382C0015FF00214FF40060FFF710FFDEE07B680E
:10383C00B3F1804F08D101210120FFF725FF0021B2
:10384C000120FFF721FFD1E07B686B4A934208D13E
:10385C0001210220FFF718FF00210220FFF714FFBF
:10386C00C4E07B68654A934208D101210420FFF72C
:10387C000BFF00210420FFF707FFB7E07B68604ACD
:10388C00934208D101210820FFF7FEFE00210820F9
:10389C00FFF7FAFEAAE07B685A4A934208D101214D
:1038AC001020FFF7F1FE00211020FFF7EDFE9DE048
:1038BC007B68554A934208D101212020FFF7E4FE92
:1038CC0000212020FFF7E0FE90E07B684F4A9342F6
:1038DC000AD101214FF40050FFF7B8FE00214FF43C
:1038EC000050FFF7B3FE81E07B68494A93420AD14E
:1038FC0001214FF40020FFF7A9FE00214FF4002016
:10390C00FFF7A4FE72E07B68424A93420AD1012180
:10391C004FF48010FFF79AFE00214FF48010FFF750
:10392C0095FE63E07B683C4A93420AD101214FF437
:10393C000010FFF78BFE00214FF40010FFF786FEFE
:10394C0054E07B68354A934208D101214020FFF7AF
:10395C009BFE00214020FFF797FE47E07B68304A32
:10396C00934208D101218020FFF78EFE0021802098
:10397C00FFF78AFE3AE07B682A4A93420AD101217A
:10398C004FF48070FFF780FE00214FF48070FFF73A
:10399C007BFE2BE07B68244A93420AD101214FF431
:1039AC008030FFF753FE00214FF48030FFF74EFEBE
:1039BC001CE07B681D4A93420AD101214FF4003070
:1039CC00FFF744FE00214FF40030FFF73FFE0DE0FF
:1039DC007B68174A934209D101214FF48020FFF7ED
:1039EC0035FE00214FF48020FFF730FE00BF083772
:1039FC00BD4680BD002C0140000400400008004082
:103A0C00000C004000100040001400400034014045
:103A1C00004C01400050014000540140001800408F
:103A2C00001C0040002000400040014000440140C8
:103A3C000048014080B485B000AF78603960002345
:103A4C00FB817B681B88FB817B682E4A934213D0D9
:103A5C007B682D4A93420FD07B68B3F1804F0BD01B
:103A6C007B682A4A934207D07B68294A934203D049
:103A7C007B68284A934208D1FB8923F07003FB81B1
:103A8C003B685A88FB891343FB817B68224A93422B
:103A9C000CD07B68214A934208D0FB8923F44073F5
:103AAC00FB813B68DA88FB891343FB817B68FA89CD
:103ABC001A803B689A887B689A853B681A887B6871
:103ACC001A857B680F4A93420FD07B680E4A93424B
:103ADC000BD07B68124A934207D07B68114A934201
:103AEC0003D07B68104A934204D13B681B7A9AB28C
:103AFC007B681A867B6801229A8200BF1437BD4608
:103B0C0080BC7047002C0140003401400004004090
:103B1C0000080040000C0040001000400014004061
:103B2C0000400140004401400048014080B485B091
:103B3C0000AF7860396000237B810023FB81002378
:103B4C00BB817B681B8C9BB223F001039AB27B6810
:103B5C001A847B681B8CFB817B689B88BB817B6890
:103B6C001B8B7B817B8923F070037B817B8923F00A
:103B7C0003037B813B681A887B8913437B81FB8918
:103B8C0023F00203FB813B681A89FB891343FB81F9
:103B9C003B685A88FB891343FB817B68244A934218
:103BAC000FD07B68234A93420BD07B68224A934206
:103BBC0007D07B68214A934203D07B68204A93420A
:103BCC0023D1FB8923F00803FB813B685A89FB89CD
:103BDC001343FB81FB8923F00403FB813B689A8828
:103BEC00FB891343FB81BB8923F48073BB81BB89A5
:103BFC0023F40073BB813B689A89BB891343BB8157
:103C0C003B68DA89BB891343BB817B68BA899A808C
:103C1C007B687A891A833B68DA887B689A867B682A
:103C2C00FA891A8400BF1437BD4680BC704700BFA8
:103C3C00002C014000340140004001400044014090
:103C4C000048014080B485B000AF78603960002333
:103C5C007B810023FB810023BB817B681B8C9BB287
:103C6C0023F010039AB27B681A847B681B8CFB814F
:103C7C007B689B88BB817B681B8B7B817B8923F456
:103C8C00E0437B817B8923F440737B813B681B88F9
:103C9C001B029AB27B8913437B81FB8923F020039F
:103CAC00FB813B681B891B019AB2FB891343FB8187
:103CBC003B685B881B019AB2FB891343FB817B68D1
:103CCC00224A934203D07B68214A93422BD1FB8931
:103CDC0023F08003FB813B685B891B019AB2FB8953
:103CEC001343FB81FB8923F04003FB813B689B88DA
:103CFC001B019AB2FB891343FB81BB8923F48063BC
:103D0C00BB81BB8923F40063BB813B689B899B000F
:103D1C009AB2BB891343BB813B68DB899B009AB287
:103D2C00BB891343BB817B68BA899A807B687A898B
:103D3C001A833B68DA887B681A877B68FA891A844D
:103D4C0000BF1437BD4680BC704700BF002C01403B
:103D5C000034014080B485B000AF78603960002336
:103D6C007B810023FB810023BB817B681B8C9BB276
:103D7C0023F480739AB27B681A847B681B8CFB815A
:103D8C007B689B88BB817B689B8B7B817B8923F0C9
:103D9C0070037B817B8923F003037B813B681A884A
:103DAC007B8913437B81FB8923F40073FB813B6884
:103DBC001B891B029AB2FB891343FB813B685B880E
:103DCC001B029AB2FB891343FB817B68224A934204
:103DDC0003D07B68214A93422BD1FB8923F40063E7
:103DEC00FB813B685B891B029AB2FB891343FB8105
:103DFC00FB8923F48063FB813B689B881B029AB28E
:103E0C00FB891343FB81BB8923F48053BB81BB89A2
:103E1C0023F40053BB813B689B891B019AB2BB897D
:103E2C001343BB813B68DB891B019AB2BB891343EB
:103E3C00BB817B68BA899A807B687A899A833B6854
:103E4C00DA887B689A877B68FA891A8400BF1437F2
:103E5C00BD4680BC704700BF002C014000340140BF
:103E6C0080B485B000AF786039600023BB8100233B
:103E7C007B810023FB817B681B8C9BB223F48053DA
:103E8C009AB27B681A847B681B8C7B817B689B88CD
:103E9C00FB817B689B8BBB81BB8923F4E043BB819B
:103EAC00BB8923F44073BB813B681B881B029AB20D
:103EBC00BB891343BB817B8923F400537B813B6813
:103ECC001B891B039AB27B8913437B813B685B88FC
:103EDC001B039AB27B8913437B817B68124A934202
:103EEC0003D07B68114A93420AD1FB8923F48043A7
:103EFC00FB813B689B899B019AB2FB891343FB8135
:103F0C007B68FA899A807B68BA899A833B68DA88DD
:103F1C007B68A3F840207B687A891A8400BF143729
:103F2C00BD4680BC704700BF002C014000340140EE
:103F3C0080B582B000AF786039603B681B88002B7D
:103F4C000FD13B6859883B689A883B681B89786815
:103F5C0001F080F93B68DB881946786801F03AF883
:103F6C0036E03B681B88042B0FD13B6859883B68B3
:103F7C009A883B681B89786801F0DCF93B68DB8820
:103F8C001946786801F042F822E03B681B88082B40
:103F9C000FD13B6859883B689A883B681B897868C5
:103FAC0001F042FA3B68DB881946786801F04CF85E
:103FBC000EE03B6859883B689A883B681B89786897
:103FCC0001F0A8FA3B68DB881946786801F058F8CC
:103FDC0000BF0837BD4680BD80B584B000AF7860A7
:103FEC0039600023FB810123BB813B685B88002B7C
:103FFC0002D10223FB8101E00023FB813B689B88FB
:10400C00012B02D10223BB8101E00123BB813B6860
:10401C001B88002B1CD13B6859883B689A883B68ED
:10402C001B89786801F016F93B68DB8819467868BB
:10403C0000F0D0FF3B681B89BA89F989786801F0D8
:10404C0079F93B68DB881946786800F0DFFF1BE0E4
:10405C003B6859883B689A883B681B89786801F0F3
:10406C0069F93B68DB881946786800F0CFFF3B683C
:10407C001B89BA89F989786801F0ECF83B68DB8810
:10408C001946786800F0A6FF00BF1037BD4680BD0A
:10409C0080B483B000AF786039603B681A883B68A5
:1040AC005B8813439AB23B689B8813439AB23B6874
:1040BC00DB8813439AB23B681B8913439AB23B6863
:1040CC005B8913439AB23B689B8913439AB27B6812
:1040DC00A3F8442000BF0C37BD4680BC704700BF1E
:1040EC0080B483B000AF78607B684FF6FF729A8023
:1040FC007B6800221A807B680022DA807B680022B1
:10410C005A807B6800221A7200BF0C37BD4680BCF7
:10411C00704700BF80B483B000AF78607B6800222A
:10412C001A807B6800225A807B6800229A807B6808
:10413C000022DA807B6800221A817B6800225A8177
:10414C007B6800229A817B680022DA8100BF0C37E1
:10415C00BD4680BC704700BF80B483B000AF7860B0
:10416C007B6800221A807B6800225A807B680122BF
:10417C009A807B680022DA807B6800221A8100BF5B
:10418C000C37BD4680BC704780B483B000AF7860FC
:10419C007B6800221A807B6800225A807B68002290
:1041AC009A807B680022DA807B6800221A817B6807
:1041BC0000225A817B6800229A8100BF0C37BD46D1
:1041CC0080BC704780B483B000AF78600B46FB7046
:1041DC00FB78002B08D07B681B889BB243F0010353
:1041EC009AB27B681A8007E07B681B889BB223F02D
:1041FC0001039AB27B681A8000BF0C37BD4680BCA5
:10420C00704700BF80B483B000AF78600B46FB7082
:10421C00FB78002B0CD07B68B3F844309BB26FEA70
:10422C0043436FEA53439AB27B68A3F8442009E0F6
:10423C007B68B3F844309BB2C3F30E039AB27B682D
:10424C00A3F8442000BF0C37BD4680BC704700BFAC
:10425C0080B483B000AF78600B467B8013467B70D4
:10426C007B78002B08D07B689B899AB27B881343A0
:10427C009AB27B689A8109E07B689B899AB27B88A9
:10428C00DB439BB213409AB27B689A8100BF0C3718
:10429C00BD4680BC704700BF80B483B000AF78606F
:1042AC000B467B807B687A889A8200BF0C37BD46B0
:1042BC0080BC704780B483B000AF78600B467B80C5
:1042CC0013463B807A883B8813439AB27B68A3F8E9
:1042DC00482000BF0C37BD4680BC704780B483B00B
:1042EC0000AF78600B467B8013467B707B78002B8D
:1042FC0008D07B689B899AB27B8813439AB27B68FF
:10430C009A8109E07B689B899AB27B88DB439BB2DC
:10431C0013409AB27B689A8100BF0C37BD4680BCB3
:10432C00704700BF80B483B000AF78607B681B8996
:10433C009BB223F007039AB27B681A8100BF0C373B
:10434C00BD4680BC704700BF80B582B000AF7860BE
:10435C000B467B807B881946786800F0E5F87B6813
:10436C001B899BB243F007039AB27B681A8100BF8A
:10437C000837BD4680BD00BF80B584B000AFF86083
:10438C00084611461A4603467B810B463B81134671
:10439C00FB807B89602B06D1FB8839890122F86868
:1043AC0000F0C8FF05E0FB8839890122F86800F0AD
:1043BC0051FF7B891946F86800F0B6F8FB681B8939
:1043CC009BB243F007039AB2FB681A8100BF103707
:1043DC00BD4680BD80B586B000AFF860084611467A
:1043EC001A4603467B810B463B811346FB80002318
:1043FC00FB82FB883A897989F86800F03BF8FB6806
:10440C001B89FB82FB8A23F00703FB82FB8A43F0A8
:10441C000703FB82FB8A23F07003FB82FB8A43F0C9
:10442C007003FB82FB68FA8A1A8100BF1837BD46FD
:10443C0080BD00BF80B584B000AFF860084611465F
:10444C001A4603467B810B463B811346FB80FB8857
:10445C003A897989F86800F00DF8FB681B899BB2E2
:10446C0043F480439AB2FB681A8100BF1037BD46F3
:10447C0080BD00BF80B487B000AFF860084611461D
:10448C001A4603467B810B463B811346FB80002377
:10449C00FB82FB681B89FB82FB8ADBB2FB82FB88FD
:1044AC001B029AB23B8913439AB27B8913439AB28B
:1044BC00FB8A1343FB82FB68FA8A1A8100BF1C3704
:1044CC00BD4680BC704700BF80B483B000AF78603D
:1044DC000B467B8013463B807B687A881A857B6809
:1044EC003A889A8200BF0C37BD4680BC704700BF2B
:1044FC0080B485B000AF78600B467B800023FB81D5
:10450C007B681B88FB81FB8923F07003FB81FA8994
:10451C007B881343FB817B68FA891A8000BF1437B0
:10452C00BD4680BC704700BF80B485B000AF7860DA
:10453C000B467B800023FB817B681B89FB81FB89FD
:10454C0023F07003FB81FA897B881343FB817B6822
:10455C00FA891A8100BF1437BD4680BC704700BF72
:10456C0080B487B000AFF860084611461A4603467F
:10457C007B810B463B811346FB800023FB8200238F
:10458C00BB8200237B82FB681B89FB82FB681B8B35
:10459C00BB82FB681B8C7B82FB8A23F00703FB82AC
:1045AC00FA8A7B891343FB82BB8A23F4407323F082
:1045BC000303BB82BB8A43F4807343F00103BB82C9
:1045CC007B8A23F022037B82FB881B019AB23B89F6
:1045DC0013439AB27B8A13437B82FB68FA8A1A8153
:1045EC00FB68BA8A1A83FB687A8A1A8400BF1C3764
:1045FC00BD4680BC704700BF80B485B000AF78600A
:10460C000B467B800023FB817B681B8BFB81FB892A
:10461C0023F07003FB81FA897B881343FB817B6851
:10462C00FA891A8300BF1437BD4680BC704700BF9F
:10463C0080B485B000AF78600B467B800023FB8193
:10464C007B681B8BFB81FB8923F4E043FB817B881C
:10465C001B029AB2FB891343FB817B68FA891A838C
:10466C0000BF1437BD4680BC704700BF80B485B016
:10467C0000AF78600B467B800023FB817B689B8BB3
:10468C00FB81FB8923F07003FB81FA897B88134340
:10469C00FB817B68FA899A8300BF1437BD4680BCC6
:1046AC00704700BF80B485B000AF78600B467B804C
:1046BC000023FB817B689B8BFB81FB8923F4E0430C
:1046CC00FB817B881B029AB2FB891343FB817B68BD
:1046DC00FA899A8300BF1437BD4680BC704700BF6F
:1046EC0080B483B000AF78600B46FB70FB78002B76
:1046FC0008D07B681B889BB243F080039AB27B681E
:10470C001A8007E07B681B889BB223F080039AB267
:10471C007B681A8000BF0C37BD4680BC704700BF59
:10472C0080B483B000AF78600B46FB70FB78002B35
:10473C0008D07B689B889BB243F004039AB27B68D9
:10474C009A8007E07B689B889BB223F004039AB2A3
:10475C007B689A8000BF0C37BD4680BC704700BF99
:10476C0080B483B000AF78600B46FB70FB78002BF5
:10477C0008D07B689B889BB243F008039AB27B6895
:10478C009A8007E07B689B889BB223F008039AB25F
:10479C007B689A8000BF0C37BD4680BC704700BF59
:1047AC0080B483B000AF78600B46FB70FB78002BB5
:1047BC0008D07B689B889BB243F001039AB27B685C
:1047CC009A8007E07B689B889BB223F001039AB226
:1047DC007B689A8000BF0C37BD4680BC704700BF19
:1047EC0080B485B000AF78600B467B800023FB81E2
:1047FC007B681B8BFB81FB8923F00803FB81FA8907
:10480C007B881343FB817B68FA891A8300BF1437BA
:10481C00BD4680BC704700BF80B485B000AF7860E7
:10482C000B467B800023FB817B681B8BFB81FB8908
:10483C0023F40063FB817B881B029AB2FB89134330
:10484C00FB817B68FA891A8300BF1437BD4680BC94
:10485C00704700BF80B485B000AF78600B467B809A
:10486C000023FB817B689B8BFB81FB8923F0080376
:10487C00FB81FA897B881343FB817B68FA899A83D5
:10488C0000BF1437BD4680BC704700BF80B485B0F4
:10489C0000AF78600B467B800023FB817B689B8B91
:1048AC00FB81FB8923F40063FB817B881B029AB29A
:1048BC00FB891343FB817B68FA899A8300BF143709
:1048CC00BD4680BC704700BF80B485B000AF786037
:1048DC000B467B800023FB817B681B8BFB81FB8958
:1048EC0023F00403FB81FA897B881343FB817B68EB
:1048FC00FA891A8300BF1437BD4680BC704700BFCD
:10490C0080B485B000AF78600B467B800023FB81C0
:10491C007B681B8BFB81FB8923F48063FB817B8889
:10492C001B029AB2FB891343FB817B68FA891A83B9
:10493C0000BF1437BD4680BC704700BF80B485B043
:10494C0000AF78600B467B800023FB817B689B8BE0
:10495C00FB81FB8923F00403FB81FA897B881343D9
:10496C00FB817B68FA899A8300BF1437BD4680BCF3
:10497C00704700BF80B485B000AF78600B467B8079
:10498C000023FB817B689B8BFB81FB8923F4806379
:10499C00FB817B881B029AB2FB891343FB817B68EA
:1049AC00FA899A8300BF1437BD4680BC704700BF9C
:1049BC0080B485B000AF78600B467B800023FB8110
:1049CC007B681B8BFB81FB8923F08003FB81FA89BD
:1049DC007B881343FB817B68FA891A8300BF1437E9
:1049EC00BD4680BC704700BF80B485B000AF786016
:1049FC000B467B800023FB817B681B8BFB81FB8937
:104A0C00C3F30E03FB817B881B029AB2FB89134311
:104A1C00FB817B68FA891A8300BF1437BD4680BCC2
:104A2C00704700BF80B485B000AF78600B467B80C8
:104A3C000023FB817B689B8BFB81FB8923F080032C
:104A4C00FB81FA897B881343FB817B68FA899A8303
:104A5C0000BF1437BD4680BC704700BF80B485B022
:104A6C0000AF78600B467B800023FB817B689B8BBF
:104A7C00FB81FB89C3F30E03FB817B881B029AB27B
:104A8C00FB891343FB817B68FA899A8300BF143737
:104A9C00BD4680BC704700BF80B485B000AF786065
:104AAC000B467B800023FB817B681B8CFB81FB8985
:104ABC0023F00203FB81FA897B881343FB817B681B
:104ACC00FA891A8400BF1437BD4680BC704700BFFA
:104ADC0080B485B000AF78600B467B800023FB81EF
:104AEC007B681B8CFB81FB8923F00803FB81FA8913
:104AFC007B881343FB817B68FA891A8400BF1437C7
:104B0C00BD4680BC704700BF80B485B000AF7860F4
:104B1C000B467B800023FB817B681B8CFB81FB8914
:104B2C0023F02003FB817B881B019AB2FB89134382
:104B3C00FB817B68FA891A8400BF1437BD4680BCA0
:104B4C00704700BF80B485B000AF78600B467B80A7
:104B5C000023FB817B681B8CFB81FB8923F080038A
:104B6C00FB817B881B019AB2FB891343FB817B6819
:104B7C00FA891A8400BF1437BD4680BC704700BF49
:104B8C0080B485B000AF78600B467B800023FB813E
:104B9C007B681B8CFB81FB8923F40073FB817B8876
:104BAC001B029AB2FB891343FB817B68FA891A8436
:104BBC0000BF1437BD4680BC704700BF80B485B0C1
:104BCC0000AF78600B467B800023FB817B681B8CDD
:104BDC00FB81FB8923F40063FB817B881B029AB267
:104BEC00FB891343FB817B68FA891A8400BF143755
:104BFC00BD4680BC704700BF80B485B000AF786004
:104C0C000B467B800023FB817B681B8CFB81FB8923
:104C1C0023F40053FB817B881B039AB2FB8913435B
:104C2C00FB817B68FA891A8400BF1437BD4680BCAF
:104C3C00704700BF80B485B000AF78600B467B80B6
:104C4C0013463B800023FB817B88012202FA03F38D
:104C5C00FB817B681B8C9AB2FB89DB439BB21340B4
:104C6C009AB27B681A847B681B8C9AB239887B88D1
:104C7C0001FA03F39BB213439AB27B681A8400BF08
:104C8C001437BD4680BC704780B485B000AF7860E7
:104C9C000B467B8013463B800023FB817B880422E0
:104CAC0002FA03F3FB817B681B8C9AB2FB89DB4312
:104CBC009BB213409AB27B681A847B681B8C9AB2A5
:104CCC0039887B8801FA03F39BB213439AB27B6851
:104CDC001A8400BF1437BD4680BC704780B485B0C1
:104CEC0000AF78600B467B8013463B800023FB6053
:104CFC0000237B817B68FB60FB681833FB607B883F
:104D0C00012202FA03F37B817B681B8C9AB27B89AC
:104D1C00DB439BB213409AB27B681A847B88002BCE
:104D2C0002D07B88082B13D17B885B089BB21A4678
:104D3C00FB681344FB60FB68FA68126822F070028F
:104D4C001A60FB68FA6811683A880A431A6016E020
:104D5C007B88043B9BB25B089BB21A46FB681344EE
:104D6C00FB60FB68FA68126822F4E0421A60FB6888
:104D7C00FA6812683988090289B20A431A6000BFBE
:104D8C001437BD4680BC704780B483B000AF7860E8
:104D9C000B46FB70FB78002B08D07B681B889BB202
:104DAC0043F002039AB27B681A8007E07B681B8889
:104DBC009BB223F002039AB27B681A8000BF0C37B7
:104DCC00BD4680BC704700BF80B483B000AF786034
:104DDC000B467B807B88002B08D07B681B889BB2A2
:104DEC0043F004039AB27B681A8007E07B681B8847
:104DFC009BB223F004039AB27B681A8000BF0C3775
:104E0C00BD4680BC704700BF80B483B000AF7860F3
:104E1C000B46FB70FB78002B08D07B689B889BB201
:104E2C0043F080039AB27B689A8007E07B689B888A
:104E3C009BB223F080039AB27B689A8000BF0C3738
:104E4C00BD4680BC704700BF80B483B000AF7860B3
:104E5C000B467B807B681B889BB223F008039AB2BD
:104E6C007B681A807B681B889AB27B8813439AB242
:104E7C007B681A8000BF0C37BD4680BC704700BFF2
:104E8C0080B483B000AF78600B467B807B689B88D6
:104E9C009BB223F070039AB27B689A807B689B88E4
:104EAC009AB27B8813439AB27B689A8000BF0C3706
:104EBC00BD4680BC704700BF80B483B000AF786043
:104ECC000B467B807B681B899BB223F007039AB24D
:104EDC007B681A817B681B899AB27B8813439AB2D0
:104EEC007B681A8100BF0C37BD4680BC704700BF81
:104EFC0080B483B000AF78600B467B807B681B89E5
:104F0C009BB223F080039AB27B681A817B681B8961
:104F1C009AB27B8813439AB27B681A8100BF0C3714
:104F2C00BD4680BC704700BF80B483B000AF7860D2
:104F3C000B467B807B687A889A8400BF0C37BD4611
:104F4C0080BC704780B483B000AF78600B467B8028
:104F5C007B687A889A8500BF0C37BD4680BC704749
:104F6C0080B483B000AF78600B467B807B687A8816
:104F7C009A8600BF0C37BD4680BC704780B483B0A6
:104F8C0000AF78600B467B807B687A881A8700BFFD
:104F9C000C37BD4680BC704780B483B000AF7860DE
:104FAC000B467B807B687A889A8700BF0C37BD469E
:104FBC0080BC704780B483B000AF78600B467B80B8
:104FCC007B687A88A3F8402000BF0C37BD4680BCB4
:104FDC00704700BF80B483B000AF78600B467B8015
:104FEC007B681B8B9BB223F00C039AB27B681A83F1
:104FFC007B681B8B9AB27B8813439AB27B681A83AB
:10500C0000BF0C37BD4680BC704700BF80B483B076
:10501C0000AF78600B467B807B681B8B9BB223F4C4
:10502C0040639AB27B681A837B681B8B9AB27B882D
:10503C001B029BB213439AB27B681A8300BF0C37D6
:10504C00BD4680BC704700BF80B483B000AF7860B1
:10505C000B467B807B689B8B9BB223F00C039AB234
:10506C007B689A837B689B8B9AB27B8813439AB23A
:10507C007B689A8300BF0C37BD4680BC704700BF6D
:10508C0080B483B000AF78600B467B807B689B8BD1
:10509C009BB223F440639AB27B689A837B689B8BA8
:1050AC009AB27B881B029BB213439AB27B689A8399
:1050BC0000BF0C37BD4680BC704700BF80B483B0C6
:1050CC0000AF78600B467B807B681B889BB223F417
:1050DC0040739AB27B681A807B681B889AB27B8873
:1050EC0013439AB27B681A8000BF0C37BD4680BC54
:1050FC00704700BF80B483B000AF78607B689B8E34
:10510C009BB218460C37BD4680BC704780B483B048
:10511C0000AF78607B681B8F9BB218460C37BD467E
:10512C0080BC704780B483B000AF78607B689B8F85
:10513C009BB218460C37BD4680BC704780B483B018
:10514C0000AF78607B68B3F840309BB218460C37E0
:10515C00BD4680BC704700BF80B483B000AF7860A0
:10516C007B689B8C9BB218460C37BD4680BC704745
:10517C0080B483B000AF78607B681B8D9BB21846FF
:10518C000C37BD4680BC704780B485B000AF7860EA
:10519C000B467B800023FB737B681B8A9AB27B884F
:1051AC0013409BB2002B02D00123FB7301E00023C0
:1051BC00FB73FB7B18461437BD4680BC704700BFA1
:1051CC0080B483B000AF78600B467B807B88DB4378
:1051DC009AB27B681A8200BF0C37BD4680BC704700
:1051EC0080B485B000AF78600B467B800023FB73E6
:1051FC000023BB8100237B817B681B8A9AB27B884E
:10520C001340BB817B689B899AB27B8813407B815E
:10521C00BB89002B05D07B89002B02D00123FB73AB
:10522C0001E00023FB73FB7B18461437BD4680BCA2
:10523C00704700BF80B483B000AF78600B467B80B2
:10524C007B88DB439AB27B681A8200BF0C37BD4661
:10525C0080BC704780B487B000AFF8600846114638
:10526C001A4603467B810B463B811346FB80002389
:10527C00BB820023FB82FB681B8C9BB223F00103D7
:10528C009AB2FB681A84FB681B8BBB82FB681B8C75
:10529C00FB82BB8A23F0F303BB82FB881B019AB20F
:1052AC003B8913439AB2BB8A1343BB82FB681C4AEB
:1052BC00934213D0FB681B4A93420FD0FB68B3F1A7
:1052CC00804F0BD0FB68184A934207D0FB68174AF3
:1052DC00934203D0FB68164A93420BD1FB8A23F00E
:1052EC000203FB827A89FB8A13439BB243F00103CE
:1052FC00FB820AE0FB8A23F00A03FB827A89FB8A91
:10530C0013439BB243F00103FB82FB68BA8A1A83F6
:10531C00FB68FA8A1A8400BF1C37BD4680BC7047F4
:10532C00002C014000340140000400400008004003
:10533C00000C004080B487B000AFF86008461146FE
:10534C001A4603467B810B463B811346FB800023A8
:10535C00BB820023FB8200237B82FB681B8C9BB2ED
:10536C0023F010039AB2FB681A84FB681B8BBB8278
:10537C00FB681B8CFB827B891B017B82BB8A23F421
:10538C0040731B051B0DBB82FB881B039AB2BB8AA7
:10539C001343BB823B891B029AB2BB8A1343BB8269
:1053AC00FB681C4A934213D0FB681B4A93420FD0F4
:1053BC00FB68B3F1804F0BD0FB68184A934207D0BF
:1053CC00FB68174A934203D0FB68164A93420BD1F1
:1053DC00FB8A23F02003FB827A8AFB8A13439BB25D
:1053EC0043F01003FB820AE0FB8A23F0A003FB824C
:1053FC007A89FB8A13439BB243F01003FB82FB6850
:10540C00BA8A1A83FB68FA8A1A8400BF1C37BD4615
:10541C0080BC7047002C0140003401400004004067
:10542C0000080040000C004080B487B000AFF8606A
:10543C00084611461A4603467B810B463B811346B0
:10544C00FB800023BB820023FB8200237B82FB6852
:10545C001B8C9BB223F480739AB2FB681A84FB6892
:10546C009B8BBB82FB681B8CFB827B891B027B8228
:10547C00BB8A23F0F303BB82FB881B019AB23B89E6
:10548C0013439AB2BB8A1343BB82FB681C4A9342F8
:10549C0013D0FB681B4A93420FD0FB68B3F1804FCB
:1054AC000BD0FB68184A934207D0FB68174A93420B
:1054BC0003D0FB68164A93420BD1FB8A23F400738A
:1054CC00FB827A8AFB8A13439BB243F48073FB8280
:1054DC000AE0FB8A23F42063FB827A89FB8A13435C
:1054EC009BB243F48073FB82FB68BA8A9A83FB6895
:1054FC00FA8A1A8400BF1C37BD4680BC704700BFB7
:10550C00002C014000340140000400400008004021
:10551C00000C004080B487B000AFF860084611461C
:10552C001A4603467B810B463B811346FB800023C6
:10553C00BB820023FB8200237B82FB681B8C9BB20B
:10554C0023F480539AB2FB681A84FB689B8BBB8252
:10555C00FB681B8CFB827B891B037B82BB8A23F43D
:10556C0040731B051B0DBB823B891B029AB2BB8A85
:10557C001343BB82FB881B039AB2BB8A1343BB82C7
:10558C00FB681D4A934213D0FB681C4A93420FD010
:10559C00FB68B3F1804F0BD0FB68194A934207D0DC
:1055AC00FB68184A934203D0FB68174A93420BD10D
:1055BC00FB8A23F40053FB827A8AFB8A13439BB247
:1055CC0043F48053FB820CE0FB8A23F400735B04EE
:1055DC005B0CFB827A89FB8A13439BB243F48053A6
:1055EC00FB82FB68BA8A9A83FB68FA8A1A8400BF2A
:1055FC001C37BD4680BC7047002C01400034014074
:10560C000004004000080040000C004080B582B04F
:10561C0000AF0346FB80FB88002B05D1084B1B68B1
:10562C0001221A82002306E0064B1B681B68984770
:10563C00034B1B680A3318460837BD4680BD00BFB4
:10564C001C4000201840002080B500AF0F4B1B6899
:10565C00DA780F4B5B789A4215D80C4B1B689B7809
:10566C00002B10D1094B1B689B88002B0BD1074BCF
:10567C001B68064A1268D2789A72064B1B685B68E4
:10568C009847002300E00223184680BD1C400020F0
:10569C00640000201840002080B582B000AF0346A3
:1056AC00FB80FB88002B05D1084B1B6801221A825A
:1056BC00002306E0064B1B689B689847034B1B684E
:1056CC000C3318460837BD4680BD00BF1C40002077
:1056DC001840002080B582B000AF1D4B1B689B6941
:1056EC001C4A126850791B4A1268D27811469847A6
:1056FC000346FB71174B1B689B7A002B23D0FB795D
:10570C00002B09D1134B1B681B79002B04D1114BB7
:10571C001B689B78002B01D0022315E0FB79002B32
:10572C0011D10D4B1B68DB6898470A4B1B68094A63
:10573C0012685279DA72074B1B68064A1268D278E3
:10574C001A73002300E0022318460837BD4680BDBB
:10575C00F43F00201C4000201840002080B584B08D
:10576C0000AF0346FB80FB88002B05D1464B1B6822
:10577C0002221A82002382E0444B00221A80424B00
:10578C001B681B7803F07F03002B2CD13E4B1B684E
:10579C005B7A7B737B7B03F02003002B07D03B4BA6
:1057AC001B7843F00203DAB2384B1A7006E0374B21
:1057BC001B7823F00203DAB2344B1A707B7B03F0B4
:1057CC004003002B07D0314B1B7843F00103DAB2B6
:1057DC002E4B1A704EE02D4B1B7823F00103DAB2DE
:1057EC002A4B1A7046E0284B1B681B7803F07F038A
:1057FC00012B01D1254B42E0234B1B681B7803F096
:10580C007F03022B34D1204B1B685B79FB73FB7B32
:10581C0003F00F03BB7397F90F30002B13DABB7B2C
:10582C009B0003F1804303F5B8431B689BB203F064
:10583C003003102B1ED1154B1B7843F00103DAB249
:10584C00124B1A7016E0BB7B9B0003F1804303F5EF
:10585C00B8431B689BB203F44053B3F5805F09D186
:10586C000A4B1B7843F00103DAB2084B1A7001E0C3
:10587C00002304E0064B1B681B699847034B184632
:10588C001037BD4680BD00BF1C400020EC3F0020FF
:10589C001840002090B587B000AF6F4B1B681B7889
:1058AC0003F07F033B613B69002B0AD16A4B1B68F9
:1058BC00694A1268527A22F02002D2B25A7200233C
:1058CC00C6E03B69022B40F0C280634B1B685B88CF
:1058DC00002B04D1604B1B681B79002B01D00223D9
:1058EC00B6E05E4BFB605C4B1B685B79BB60BB68D6
:1058FC0023F080037B607B683B60574B1B685B79B4
:10590C005BB2002B0BDA3B689B0003F1804303F581
:10591C00B8431B689BB203F030037B610AE03B6821
:10592C009B0003F1804303F5B8431B689BB203F45F
:10593C0040537B61FB681B781A467B689A4207D9F7
:10594C007B69002B04D0444B1B689B7A002B01D144
:10595C0002237DE0BB6803F08003002B17D03B686B
:10596C009B0003F1804303F5B8431B689BB203F023
:10597C003003102B65D13B68DBB2184601F05EFC9E
:10598C003B68DBB23021184601F072F959E03B68F4
:10599C009B0003F1804303F5B8431B689BB203F4EF
:1059AC004053B3F5805F4CD13B68002B27D13B684B
:1059BC00DAB22B4B93F82C309BB21946104601F0FF
:1059CC006FFD3B689B0003F1804303F5B8431B68F4
:1059DC009BB223F4804323F070039CB284F4805375
:1059EC009CB284F400539CB23B689B0003F180434F
:1059FC0003F5B8431B4A224392B21A6021E03B687C
:105A0C00DBB2184601F0ECFB3B689B0003F18043D2
:105A1C0003F5B8431B689BB223F4804323F0700357
:105A2C009CB284F480539CB284F400539CB23B68C7
:105A3C009B0003F1804303F5B8430A4A224392B218
:105A4C001A60094B1B685B699847002300E002232E
:105A5C0018461C37BD4690BD1C4000206400002039
:105A6C00680000208080FFFF1840002090B585B0B2
:105A7C0000AF3F4B1B685B79BB60BB6823F08003B6
:105A8C007B607B683B603A4B1B685B795BB2002B9D
:105A9C000BDA3B689B0003F1804303F5B8431B68AA
:105AAC009BB203F03003FB600AE03B689B0003F100
:105ABC00804303F5B8431B689BB203F44053FB606F
:105ACC002C4B1B781A463B689A420CD9284B1B6806
